{"abi":[{"type":"function","name":"getAllWaves","inputs":[],"outputs":[{"name":"","type":"tuple[]","internalType":"struct WavePortal.Wave[]","components":[{"name":"waver","type":"address","internalType":"address"},{"name":"message","type":"string","internalType":"string"},{"name":"timestamp","type":"uint256","internalType":"uint256"}]}],"stateMutability":"view"},{"type":"function","name":"getTotalWaves","inputs":[],"outputs":[{"name":"","type":"uint256","internalType":"uint256"}],"stateMutability":"view"},{"type":"function","name":"totalWaves","inputs":[],"outputs":[{"name":"","type":"uint256","internalType":"uint256"}],"stateMutability":"view"},{"type":"function","name":"wave","inputs":[{"name":"_message","type":"string","internalType":"string"}],"outputs":[],"stateMutability":"nonpayable"},{"type":"function","name":"waves","inputs":[{"name":"","type":"uint256","internalType":"uint256"}],"outputs":[{"name":"waver","type":"address","internalType":"address"},{"name":"message","type":"string","internalType":"string"},{"name":"timestamp","type":"uint256","internalType":"uint256"}],"stateMutability":"view"},{"type":"event","name":"NewWave","inputs":[{"name":"from","type":"address","indexed":true,"internalType":"address"},{"name":"timestamp","type":"uint256","indexed":false,"internalType":"uint256"},{"name":"message","type":"string","indexed":false,"internalType":"string"}],"anonymous":false}],"bytecode":{"object":"0x6080604052348015600f57600080fd5b506107658061001f6000396000f3fe608060405234801561001057600080fd5b50600436106100575760003560e01c8063291bcab31461005c578063449d46c0146100785780639a2cdc081461008d578063bd43a90814610095578063c781267a146100aa575b600080fd5b61006560015481565b6040519081526020015b60405180910390f35b61008b6100863660046103c1565b6100cc565b005b600154610065565b61009d6101d2565b60405161006f91906104c0565b6100bd6100b8366004610552565b6102e3565b60405161006f9392919061056b565b60018060008282546100de919061059f565b9091555050604080516060810182523381526020810183815242928201929092526000805460018101825590805281517f290decd9548b62a8d60345a988386fc84ba6bc95484008f6362f93160ef3e563600390920291820180546001600160a01b0319166001600160a01b0390921691909117815592519192917f290decd9548b62a8d60345a988386fc84ba6bc95484008f6362f93160ef3e56490910190610188908261064f565b506040918201516002909101555133907f5f7e16dc676677766a70e9c5628aa6c54ddb8b6e5188e2ae1e1f17f1ffbea716906101c7904290859061070e565b60405180910390a250565b60606000805480602002602001604051908101604052809291908181526020016000905b828210156102da57600084815260209081902060408051606081019091526003850290910180546001600160a01b03168252600181018054929391929184019161023f906105c6565b80601f016020809104026020016040519081016040528092919081815260200182805461026b906105c6565b80156102b85780601f1061028d576101008083540402835291602001916102b8565b820191906000526020600020905b81548152906001019060200180831161029b57829003601f168201915b50505050508152602001600282015481525050815260200190600101906101f6565b50505050905090565b600081815481106102f357600080fd5b6000918252602090912060039091020180546001820180546001600160a01b03909216935090610322906105c6565b80601f016020809104026020016040519081016040528092919081815260200182805461034e906105c6565b801561039b5780601f106103705761010080835404028352916020019161039b565b820191906000526020600020905b81548152906001019060200180831161037e57829003601f168201915b5050505050908060020154905083565b634e487b7160e01b600052604160045260246000fd5b6000602082840312156103d357600080fd5b813567ffffffffffffffff8111156103ea57600080fd5b8201601f810184136103fb57600080fd5b803567ffffffffffffffff811115610415576104156103ab565b604051601f8201601f19908116603f0116810167ffffffffffffffff81118282101715610444576104446103ab565b60405281815282820160200186101561045c57600080fd5b81602084016020830137600091810160200191909152949350505050565b6000815180845260005b818110156104a057602081850181015186830182015201610484565b506000602082860101526020601f19601f83011685010191505092915050565b6000602082016020835280845180835260408501915060408160051b86010192506020860160005b8281101561054657868503603f19018452815180516001600160a01b031686526020808201516060918801829052906105239088018261047a565b6040928301519790920196909652945060209384019391909101906001016104e8565b50929695505050505050565b60006020828403121561056457600080fd5b5035919050565b6001600160a01b038416815260606020820181905260009061058f9083018561047a565b9050826040830152949350505050565b808201808211156105c057634e487b7160e01b600052601160045260246000fd5b92915050565b600181811c908216806105da57607f821691505b6020821081036105fa57634e487b7160e01b600052602260045260246000fd5b50919050565b601f82111561064a57806000526020600020601f840160051c810160208510156106275750805b601f840160051c820191505b818110156106475760008155600101610633565b50505b505050565b815167ffffffffffffffff811115610669576106696103ab565b61067d8161067784546105c6565b84610600565b6020601f8211600181146106b157600083156106995750848201515b600019600385901b1c1916600184901b178455610647565b600084815260208120601f198516915b828110156106e157878501518255602094850194600190920191016106c1565b50848210156106ff5786840151600019600387901b60f8161c191681555b50505050600190811b01905550565b828152604060208201526000610727604083018461047a565b94935050505056fea26469706673582212204159bc139c128b3dcf3bf5a1d5c06c26e9e1d27bcf392db13173685707a7b14664736f6c634300081a0033","linkReferences":{}},"methodIdentifiers":{"getAllWaves()":"bd43a908","getTotalWaves()":"9a2cdc08","totalWaves()":"291bcab3","wave(string)":"449d46c0","waves(uint256)":"c781267a"},"id":23}